{
  "_format": "hh3-artifact-1",
  "contractName": "Account",
  "sourceName": "contracts/Account.sol",
  "abi": [
    {
      "inputs": [
        {
          "internalType": "address",
          "name": "_owner",
          "type": "address"
        }
      ],
      "stateMutability": "nonpayable",
      "type": "constructor"
    },
    {
      "inputs": [],
      "name": "ECDSAInvalidSignature",
      "type": "error"
    },
    {
      "inputs": [
        {
          "internalType": "uint256",
          "name": "length",
          "type": "uint256"
        }
      ],
      "name": "ECDSAInvalidSignatureLength",
      "type": "error"
    },
    {
      "inputs": [
        {
          "internalType": "bytes32",
          "name": "s",
          "type": "bytes32"
        }
      ],
      "name": "ECDSAInvalidSignatureS",
      "type": "error"
    },
    {
      "anonymous": false,
      "inputs": [
        {
          "indexed": true,
          "internalType": "uint8",
          "name": "operationType",
          "type": "uint8"
        },
        {
          "indexed": true,
          "internalType": "address",
          "name": "target",
          "type": "address"
        },
        {
          "indexed": false,
          "internalType": "uint256",
          "name": "value",
          "type": "uint256"
        }
      ],
      "name": "OperationExecuted",
      "type": "event"
    },
    {
      "anonymous": false,
      "inputs": [
        {
          "indexed": true,
          "internalType": "bytes32",
          "name": "keyHash",
          "type": "bytes32"
        },
        {
          "indexed": false,
          "internalType": "uint256",
          "name": "expiresAt",
          "type": "uint256"
        }
      ],
      "name": "SessionKeyCreated",
      "type": "event"
    },
    {
      "anonymous": false,
      "inputs": [
        {
          "indexed": true,
          "internalType": "bytes32",
          "name": "keyHash",
          "type": "bytes32"
        }
      ],
      "name": "SessionKeyRevoked",
      "type": "event"
    },
    {
      "inputs": [
        {
          "internalType": "bytes32",
          "name": "publicKeyHash",
          "type": "bytes32"
        },
        {
          "internalType": "uint256",
          "name": "expirationDuration",
          "type": "uint256"
        }
      ],
      "name": "createSessionKey",
      "outputs": [],
      "stateMutability": "nonpayable",
      "type": "function"
    },
    {
      "inputs": [],
      "name": "entryPoint",
      "outputs": [
        {
          "internalType": "address",
          "name": "",
          "type": "address"
        }
      ],
      "stateMutability": "view",
      "type": "function"
    },
    {
      "inputs": [
        {
          "internalType": "address",
          "name": "dest",
          "type": "address"
        },
        {
          "internalType": "uint256",
          "name": "value",
          "type": "uint256"
        },
        {
          "internalType": "bytes",
          "name": "func",
          "type": "bytes"
        },
        {
          "internalType": "uint8",
          "name": "operationType",
          "type": "uint8"
        }
      ],
      "name": "execute",
      "outputs": [],
      "stateMutability": "nonpayable",
      "type": "function"
    },
    {
      "inputs": [],
      "name": "owner",
      "outputs": [
        {
          "internalType": "address",
          "name": "",
          "type": "address"
        }
      ],
      "stateMutability": "view",
      "type": "function"
    },
    {
      "inputs": [
        {
          "internalType": "bytes32",
          "name": "publicKeyHash",
          "type": "bytes32"
        }
      ],
      "name": "revokeSessionKey",
      "outputs": [],
      "stateMutability": "nonpayable",
      "type": "function"
    },
    {
      "inputs": [
        {
          "internalType": "bytes32",
          "name": "",
          "type": "bytes32"
        }
      ],
      "name": "sessionKeys",
      "outputs": [
        {
          "internalType": "bytes32",
          "name": "keyHash",
          "type": "bytes32"
        },
        {
          "internalType": "uint256",
          "name": "expiresAt",
          "type": "uint256"
        },
        {
          "internalType": "bool",
          "name": "isActive",
          "type": "bool"
        }
      ],
      "stateMutability": "view",
      "type": "function"
    },
    {
      "inputs": [
        {
          "components": [
            {
              "internalType": "address",
              "name": "sender",
              "type": "address"
            },
            {
              "internalType": "uint256",
              "name": "nonce",
              "type": "uint256"
            },
            {
              "internalType": "bytes",
              "name": "initCode",
              "type": "bytes"
            },
            {
              "internalType": "bytes",
              "name": "callData",
              "type": "bytes"
            },
            {
              "internalType": "bytes32",
              "name": "accountGasLimits",
              "type": "bytes32"
            },
            {
              "internalType": "uint256",
              "name": "preVerificationGas",
              "type": "uint256"
            },
            {
              "internalType": "bytes32",
              "name": "gasFees",
              "type": "bytes32"
            },
            {
              "internalType": "bytes",
              "name": "paymasterAndData",
              "type": "bytes"
            },
            {
              "internalType": "bytes",
              "name": "signature",
              "type": "bytes"
            }
          ],
          "internalType": "struct PackedUserOperation",
          "name": "userOp",
          "type": "tuple"
        },
        {
          "internalType": "bytes32",
          "name": "userOpHash",
          "type": "bytes32"
        },
        {
          "internalType": "uint256",
          "name": "missingAccountFunds",
          "type": "uint256"
        }
      ],
      "name": "validateUserOp",
      "outputs": [
        {
          "internalType": "uint256",
          "name": "validationData",
          "type": "uint256"
        }
      ],
      "stateMutability": "nonpayable",
      "type": "function"
    },
    {
      "stateMutability": "payable",
      "type": "receive"
    }
  ],
  "bytecode": "0x60a03461009e57601f610a4738819003918201601f19168301916001600160401b038311848410176100a25780849260209460405283398101031261009e57516001600160a01b0381169081900361009e575f80546001600160a01b0319169190911790556f71727de22e5e9d8baf0edac6f37da03260805260405161099090816100b782396080518181816103560152818161055801526107500152f35b5f80fd5b634e487b7160e01b5f52604160045260245ffdfe6080604052600436101561001a575b3615610018575f80fd5b005b5f3560e01c80630c3b1ae91461008957806319822f7c1461008457806339e600e11461007f578063519454471461007a5780638da5cb5b146100755780639a56f4fb146100705763b0d691fe0361000e57610341565b6102e5565b6102be565b610241565b61011d565b6100ce565b346100ca5760203660031901126100ca576004355f52600160205260405f2080549060ff60026001830154920154169160805260a052151560c05260606080f35b5f80fd5b346100ca5760603660031901126100ca5760043567ffffffffffffffff81116100ca5761012060031982360301126100ca576101156020916024356044359160040161054d565b604051908152f35b346100ca5760403660031901126100ca5760043560243561013f3033146106e4565b80151580610224575b156101ea576101e561017b7f8c8c456fdd0888d6648481f2279093669e413dd3ad80183b997c363cbb45626c924261071c565b6101d5610186610431565b85815282602082015261019c6040820160019052565b6101ae865f52600160205260405f2090565b6002604091835181556020840151600182015501910151151560ff80198354169116179055565b6040519081529081906020820190565b0390a2005b60405162461bcd60e51b815260206004820152601260248201527134b73b30b634b21032bc3834b930ba34b7b760711b6044820152606490fd5b5062093a80811115610148565b6064359060ff821682036100ca57565b346100ca5760803660031901126100ca576004356001600160a01b03811681036100ca57602435906044359067ffffffffffffffff82116100ca57366023830112156100ca5781600401359067ffffffffffffffff82116100ca5736602483850101116100ca576100189360246102b6610231565b94019161073d565b346100ca575f3660031901126100ca575f546040516001600160a01b039091168152602090f35b346100ca5760203660031901126100ca576004356103043033146106e4565b805f526001602052600260405f200160ff1981541690557fa6293d3e6a2b62cf1a2218754c516fcf944f744d8794bb85842d57f0b1aa38a75f80a2005b346100ca575f3660031901126100ca576040517f00000000000000000000000000000000000000000000000000000000000000006001600160a01b03168152602090f35b1561038c57565b60405162461bcd60e51b815260206004820152600f60248201526e1bdb9b1e48115b9d1c9e541bda5b9d608a1b6044820152606490fd5b903590601e19813603018212156100ca570180359067ffffffffffffffff82116100ca576020019181360383136100ca57565b634e487b7160e01b5f52604160045260245ffd5b90601f8019910116810190811067ffffffffffffffff82111761042c57604052565b6103f6565b6040519061044060608361040a565b565b67ffffffffffffffff811161042c57601f01601f191660200190565b92919261046a82610442565b91610478604051938461040a565b8294818452818301116100ca578281602093845f960137010152565b3d156104be573d906104a582610442565b916104b3604051938461040a565b82523d5f602084013e565b606090565b156104ca57565b60405162461bcd60e51b815260206004820152601860248201527f6661696c656420746f2070617920456e747279506f696e7400000000000000006044820152606490fd5b906040516060810181811067ffffffffffffffff82111761042c57604052604060ff6002839580548552600181015460208601520154161515910152565b906105b390610586337f00000000000000000000000000000000000000000000000000000000000000006001600160a01b031614610385565b7f19457468657265756d205369676e6564204d6573736167653a0a3332000000005f52601c52603c5f2090565b6105d66101008301916105d06105c984866103c3565b369161045e565b906107e3565b5f549092906001600160a01b038085169116146106c0576041916105f9916103c3565b90501461062d575b508061060e575b50600190565b5f80808061062794335af1610621610494565b506104c3565b5f610608565b61067f6106849160405161066e816106606020820194856014916bffffffffffffffffffffffff199060601b1681520190565b03601f19810183528261040a565b5190205f52600160205260405f2090565b61050f565b60408101511561060157602090826106a4936106a7575b50015160a01b90565b90565b5f8080806106ba94335af1610621610494565b5f61069b565b505050806106cd57505f90565b5f8080806106e094335af1610621610494565b5f90565b156106eb57565b60405162461bcd60e51b815260206004820152600960248201526837b7363c9039b2b63360b91b6044820152606490fd5b9190820180921161072957565b634e487b7160e01b5f52601160045260245ffd5b5f948594929391926107c0929161077e337f00000000000000000000000000000000000000000000000000000000000000006001600160a01b031614610385565b6040518681526001600160a01b0386169160ff16907f0b2ec0a5ea717ccf6defc7ed612c31b9c5f07b7e6d91148da3b20114ea85d86d90602090a3369161045e565b91602083519301915af16107d2610494565b90156107db5750565b602081519101fd5b6106a4916107f0916107f9565b90929192610851565b8151919060418303610829576108229250602082015190606060408401519301515f1a906108cd565b9192909190565b50505f9160029190565b6004111561083d57565b634e487b7160e01b5f52602160045260245ffd5b61085a81610833565b80610863575050565b61086c81610833565b600181036108835763f645eedf60e01b5f5260045ffd5b61088c81610833565b600281036108a7575063fce698f760e01b5f5260045260245ffd5b806108b3600392610833565b146108bb5750565b6335e2f38360e21b5f5260045260245ffd5b91907f7fffffffffffffffffffffffffffffff5d576e7357a4501ddfe92f46681b20a0841161094f579160209360809260ff5f9560405194855216868401526040830152606082015282805260015afa15610944575f516001600160a01b0381161561093a57905f905f90565b505f906001905f90565b6040513d5f823e3d90fd5b5050505f916003919056fea26469706673582212206df487ffd7e0d8309b4925acd9f691ab7dddb37abb570b3a144b7efb7370a8e164736f6c634300081c0033",
  "linkReferences": {},
  "deployedLinkReferences": {},
  "immutableReferences": {
    "10919": [
      {
        "length": 32,
        "start": 854
      },
      {
        "length": 32,
        "start": 1368
      },
      {
        "length": 32,
        "start": 1872
      }
    ]
  },
  "inputSourceName": "project/contracts/Account.sol",
  "buildInfoId": "solc-0_8_28-1ed4c4d10b0a2a549b14c65942eef6784018a61d"
}