{
  "_format": "hh3-artifact-1",
  "contractName": "Account",
  "sourceName": "contracts/Account.sol",
  "abi": [
    {
      "inputs": [
        {
          "internalType": "address",
          "name": "_owner",
          "type": "address"
        }
      ],
      "stateMutability": "nonpayable",
      "type": "constructor"
    },
    {
      "inputs": [],
      "name": "ECDSAInvalidSignature",
      "type": "error"
    },
    {
      "inputs": [
        {
          "internalType": "uint256",
          "name": "length",
          "type": "uint256"
        }
      ],
      "name": "ECDSAInvalidSignatureLength",
      "type": "error"
    },
    {
      "inputs": [
        {
          "internalType": "bytes32",
          "name": "s",
          "type": "bytes32"
        }
      ],
      "name": "ECDSAInvalidSignatureS",
      "type": "error"
    },
    {
      "anonymous": false,
      "inputs": [
        {
          "indexed": true,
          "internalType": "uint8",
          "name": "operationType",
          "type": "uint8"
        },
        {
          "indexed": true,
          "internalType": "address",
          "name": "target",
          "type": "address"
        },
        {
          "indexed": false,
          "internalType": "uint256",
          "name": "value",
          "type": "uint256"
        }
      ],
      "name": "OperationExecuted",
      "type": "event"
    },
    {
      "anonymous": false,
      "inputs": [
        {
          "indexed": true,
          "internalType": "bytes32",
          "name": "keyHash",
          "type": "bytes32"
        },
        {
          "indexed": false,
          "internalType": "uint256",
          "name": "expiresAt",
          "type": "uint256"
        }
      ],
      "name": "SessionKeyCreated",
      "type": "event"
    },
    {
      "anonymous": false,
      "inputs": [
        {
          "indexed": true,
          "internalType": "bytes32",
          "name": "keyHash",
          "type": "bytes32"
        }
      ],
      "name": "SessionKeyRevoked",
      "type": "event"
    },
    {
      "inputs": [
        {
          "internalType": "bytes32",
          "name": "publicKeyHash",
          "type": "bytes32"
        },
        {
          "internalType": "uint256",
          "name": "expirationDuration",
          "type": "uint256"
        }
      ],
      "name": "createSessionKey",
      "outputs": [],
      "stateMutability": "nonpayable",
      "type": "function"
    },
    {
      "inputs": [],
      "name": "entryPoint",
      "outputs": [
        {
          "internalType": "address",
          "name": "",
          "type": "address"
        }
      ],
      "stateMutability": "view",
      "type": "function"
    },
    {
      "inputs": [
        {
          "internalType": "address",
          "name": "dest",
          "type": "address"
        },
        {
          "internalType": "uint256",
          "name": "value",
          "type": "uint256"
        },
        {
          "internalType": "bytes",
          "name": "func",
          "type": "bytes"
        },
        {
          "internalType": "uint8",
          "name": "operationType",
          "type": "uint8"
        }
      ],
      "name": "execute",
      "outputs": [],
      "stateMutability": "nonpayable",
      "type": "function"
    },
    {
      "inputs": [],
      "name": "owner",
      "outputs": [
        {
          "internalType": "address",
          "name": "",
          "type": "address"
        }
      ],
      "stateMutability": "view",
      "type": "function"
    },
    {
      "inputs": [
        {
          "internalType": "bytes32",
          "name": "publicKeyHash",
          "type": "bytes32"
        }
      ],
      "name": "revokeSessionKey",
      "outputs": [],
      "stateMutability": "nonpayable",
      "type": "function"
    },
    {
      "inputs": [
        {
          "internalType": "bytes32",
          "name": "",
          "type": "bytes32"
        }
      ],
      "name": "sessionKeys",
      "outputs": [
        {
          "internalType": "bytes32",
          "name": "keyHash",
          "type": "bytes32"
        },
        {
          "internalType": "uint256",
          "name": "expiresAt",
          "type": "uint256"
        },
        {
          "internalType": "bool",
          "name": "isActive",
          "type": "bool"
        }
      ],
      "stateMutability": "view",
      "type": "function"
    },
    {
      "inputs": [
        {
          "components": [
            {
              "internalType": "address",
              "name": "sender",
              "type": "address"
            },
            {
              "internalType": "uint256",
              "name": "nonce",
              "type": "uint256"
            },
            {
              "internalType": "bytes",
              "name": "initCode",
              "type": "bytes"
            },
            {
              "internalType": "bytes",
              "name": "callData",
              "type": "bytes"
            },
            {
              "internalType": "bytes32",
              "name": "accountGasLimits",
              "type": "bytes32"
            },
            {
              "internalType": "uint256",
              "name": "preVerificationGas",
              "type": "uint256"
            },
            {
              "internalType": "bytes32",
              "name": "gasFees",
              "type": "bytes32"
            },
            {
              "internalType": "bytes",
              "name": "paymasterAndData",
              "type": "bytes"
            },
            {
              "internalType": "bytes",
              "name": "signature",
              "type": "bytes"
            }
          ],
          "internalType": "struct PackedUserOperation",
          "name": "userOp",
          "type": "tuple"
        },
        {
          "internalType": "bytes32",
          "name": "userOpHash",
          "type": "bytes32"
        },
        {
          "internalType": "uint256",
          "name": "missingAccountFunds",
          "type": "uint256"
        }
      ],
      "name": "validateUserOp",
      "outputs": [
        {
          "internalType": "uint256",
          "name": "validationData",
          "type": "uint256"
        }
      ],
      "stateMutability": "nonpayable",
      "type": "function"
    },
    {
      "stateMutability": "payable",
      "type": "receive"
    }
  ],
  "bytecode": "0x60a060405234801561000f575f5ffd5b50604051610db8380380610db883398101604081905261002e91610066565b5f80546001600160a01b0319166001600160a01b03929092169190911790556f71727de22e5e9d8baf0edac6f37da032608052610093565b5f60208284031215610076575f5ffd5b81516001600160a01b038116811461008c575f5ffd5b9392505050565b608051610cff6100b95f395f81816101ad015281816101db01526106aa0152610cff5ff3fe608060405260043610610071575f3560e01c8063519454471161004c57806351945447146101285780638da5cb5b146101475780639a56f4fb1461017d578063b0d691fe1461019c575f5ffd5b80630c3b1ae91461007c57806319822f7c146100da57806339e600e114610107575f5ffd5b3661007857005b5f5ffd5b348015610087575f5ffd5b506100b8610096366004610af6565b600160208190525f918252604090912080549181015460029091015460ff1683565b6040805193845260208401929092521515908201526060015b60405180910390f35b3480156100e5575f5ffd5b506100f96100f4366004610b0d565b6101cf565b6040519081526020016100d1565b348015610112575f5ffd5b50610126610121366004610b5c565b61057a565b005b348015610133575f5ffd5b50610126610142366004610b91565b61069f565b348015610152575f5ffd5b505f54610165906001600160a01b031681565b6040516001600160a01b0390911681526020016100d1565b348015610188575f5ffd5b50610126610197366004610af6565b6107a5565b3480156101a7575f5ffd5b506101657f000000000000000000000000000000000000000000000000000000000000000081565b5f336001600160a01b037f0000000000000000000000000000000000000000000000000000000000000000161461024d5760405162461bcd60e51b815260206004820152600f60248201527f6f6e6c7920456e747279506f696e74000000000000000000000000000000000060448201526064015b60405180910390fd5b7f19457468657265756d205369676e6564204d6573736167653a0a3332000000005f908152601c849052603c8120906102c78261028e610100890189610c36565b8080601f0160208091040260200160405190810160405280939291908181526020018383808284375f9201919091525061082292505050565b5f549091506001600160a01b03808316911614801561038857841561037d576040515f90339087908381818185875af1925050503d805f8114610325576040519150601f19603f3d011682016040523d82523d5f602084013e61032a565b606091505b505090508061037b5760405162461bcd60e51b815260206004820152601860248201527f6661696c656420746f2070617920456e747279506f696e7400000000000000006044820152606401610244565b505b5f9350505050610573565b610396610100880188610c36565b90506041036104ce576040516bffffffffffffffffffffffff19606084901b1660208201525f9060340160408051601f1981840301815282825280516020918201205f81815260018084529084902060608601855280548652908101549285019290925260029091015460ff161580159284019290925292506104cb5786156104b0576040515f90339089908381818185875af1925050503d805f8114610458576040519150601f19603f3d011682016040523d82523d5f602084013e61045d565b606091505b50509050806104ae5760405162461bcd60e51b815260206004820152601860248201527f6661696c656420746f2070617920456e747279506f696e7400000000000000006044820152606401610244565b505b6104bf5f82602001515f61084c565b95505050505050610573565b50505b841561056b576040515f90339087908381818185875af1925050503d805f8114610513576040519150601f19603f3d011682016040523d82523d5f602084013e610518565b606091505b50509050806105695760405162461bcd60e51b815260206004820152601860248201527f6661696c656420746f2070617920456e747279506f696e7400000000000000006044820152606401610244565b505b600193505050505b9392505050565b3330146105b55760405162461bcd60e51b815260206004820152600960248201526837b7363c9039b2b63360b91b6044820152606401610244565b5f811180156105c7575062093a808111155b6106135760405162461bcd60e51b815260206004820152601260248201527f696e76616c69642065787069726174696f6e00000000000000000000000000006044820152606401610244565b5f61061e8242610c80565b60408051606081018252858152602080820184815260018385018181525f8a815282855286902094518555915190840155516002909201805460ff191692151592909217909155905182815291925084917f8c8c456fdd0888d6648481f2279093669e413dd3ad80183b997c363cbb45626c910160405180910390a2505050565b336001600160a01b037f000000000000000000000000000000000000000000000000000000000000000016146107175760405162461bcd60e51b815260206004820152600f60248201527f6f6e6c7920456e747279506f696e7400000000000000000000000000000000006044820152606401610244565b846001600160a01b03168160ff167f0b2ec0a5ea717ccf6defc7ed612c31b9c5f07b7e6d91148da3b20114ea85d86d8660405161075691815260200190565b60405180910390a361079e858585858080601f0160208091040260200160405190810160405280939291908181526020018383808284375f9201919091525061087292505050565b5050505050565b3330146107e05760405162461bcd60e51b815260206004820152600960248201526837b7363c9039b2b63360b91b6044820152606401610244565b5f81815260016020526040808220600201805460ff191690555182917fa6293d3e6a2b62cf1a2218754c516fcf944f744d8794bb85842d57f0b1aa38a791a250565b5f5f5f5f61083086866108de565b9250925092506108408282610927565b50909150505b92915050565b5f60d082901b60a084901b85610862575f610865565b60015b60ff161717949350505050565b5f5f846001600160a01b0316848460405161088d9190610c9f565b5f6040518083038185875af1925050503d805f81146108c7576040519150601f19603f3d011682016040523d82523d5f602084013e6108cc565b606091505b50915091508161079e57805160208201fd5b5f5f5f8351604103610915576020840151604085015160608601515f1a61090788828585610a2e565b955095509550505050610920565b505081515f91506002905b9250925092565b5f82600381111561093a5761093a610cb5565b03610943575050565b600182600381111561095757610957610cb5565b0361098e576040517ff645eedf00000000000000000000000000000000000000000000000000000000815260040160405180910390fd5b60028260038111156109a2576109a2610cb5565b036109dc576040517ffce698f700000000000000000000000000000000000000000000000000000000815260048101829052602401610244565b60038260038111156109f0576109f0610cb5565b03610a2a576040517fd78bce0c00000000000000000000000000000000000000000000000000000000815260048101829052602401610244565b5050565b5f80807f7fffffffffffffffffffffffffffffff5d576e7357a4501ddfe92f46681b20a0841115610a6757505f91506003905082610aec565b604080515f808252602082018084528a905260ff891692820192909252606081018790526080810186905260019060a0016020604051602081039080840390855afa158015610ab8573d5f5f3e3d5ffd5b5050604051601f1901519150506001600160a01b038116610ae357505f925060019150829050610aec565b92505f91508190505b9450945094915050565b5f60208284031215610b06575f5ffd5b5035919050565b5f5f5f60608486031215610b1f575f5ffd5b833567ffffffffffffffff811115610b35575f5ffd5b84016101208187031215610b47575f5ffd5b95602085013595506040909401359392505050565b5f5f60408385031215610b6d575f5ffd5b50508035926020909101359150565b803560ff81168114610b8c575f5ffd5b919050565b5f5f5f5f5f60808688031215610ba5575f5ffd5b85356001600160a01b0381168114610bbb575f5ffd5b945060208601359350604086013567ffffffffffffffff811115610bdd575f5ffd5b8601601f81018813610bed575f5ffd5b803567ffffffffffffffff811115610c03575f5ffd5b886020828401011115610c14575f5ffd5b60209190910193509150610c2a60608701610b7c565b90509295509295909350565b5f5f8335601e19843603018112610c4b575f5ffd5b83018035915067ffffffffffffffff821115610c65575f5ffd5b602001915036819003821315610c79575f5ffd5b9250929050565b8082018082111561084657634e487b7160e01b5f52601160045260245ffd5b5f82518060208501845e5f920191825250919050565b634e487b7160e01b5f52602160045260245ffdfea26469706673582212203cd24efb91d9192eb02bf954d7a343bf97dc6b820f0f456b6814bb65da5124fd64736f6c634300081c0033",
  "linkReferences": {},
  "deployedLinkReferences": {},
  "immutableReferences": {
    "10841": [
      {
        "length": 32,
        "start": 429
      },
      {
        "length": 32,
        "start": 475
      },
      {
        "length": 32,
        "start": 1706
      }
    ]
  },
  "inputSourceName": "project/contracts/Account.sol",
  "buildInfoId": "solc-0_8_28-20a6c5a3e7fac1a325b742f9ada1cb7c9377b3b9"
}