{
  "_format": "hh3-artifact-1",
  "contractName": "GMXPositionExecutor",
  "sourceName": "contracts/GMXPositionExecutor.sol",
  "abi": [
    {
      "inputs": [
        {
          "internalType": "address",
          "name": "router_",
          "type": "address"
        },
        {
          "internalType": "address",
          "name": "routerSpender_",
          "type": "address"
        },
        {
          "internalType": "address",
          "name": "initialForwarder_",
          "type": "address"
        }
      ],
      "stateMutability": "nonpayable",
      "type": "constructor"
    },
    {
      "inputs": [
        {
          "internalType": "uint8",
          "name": "action",
          "type": "uint8"
        }
      ],
      "name": "InvalidAction",
      "type": "error"
    },
    {
      "inputs": [],
      "name": "InvalidCollateralToken",
      "type": "error"
    },
    {
      "inputs": [],
      "name": "InvalidExecutionFee",
      "type": "error"
    },
    {
      "inputs": [
        {
          "internalType": "address",
          "name": "sender",
          "type": "address"
        }
      ],
      "name": "InvalidForwarder",
      "type": "error"
    },
    {
      "inputs": [],
      "name": "InvalidMarket",
      "type": "error"
    },
    {
      "inputs": [],
      "name": "InvalidOrderDirection",
      "type": "error"
    },
    {
      "inputs": [],
      "name": "InvalidOrderType",
      "type": "error"
    },
    {
      "inputs": [],
      "name": "InvalidOrderVault",
      "type": "error"
    },
    {
      "inputs": [],
      "name": "InvalidRouter",
      "type": "error"
    },
    {
      "inputs": [],
      "name": "InvalidRouterSpender",
      "type": "error"
    },
    {
      "inputs": [],
      "name": "NotOwner",
      "type": "error"
    },
    {
      "anonymous": false,
      "inputs": [
        {
          "indexed": true,
          "internalType": "uint8",
          "name": "action",
          "type": "uint8"
        },
        {
          "indexed": true,
          "internalType": "bytes32",
          "name": "orderKey",
          "type": "bytes32"
        },
        {
          "indexed": false,
          "internalType": "uint256",
          "name": "sizeDeltaUsd",
          "type": "uint256"
        },
        {
          "indexed": false,
          "internalType": "bool",
          "name": "isLong",
          "type": "bool"
        }
      ],
      "name": "DirectExecutionConsumed",
      "type": "event"
    },
    {
      "anonymous": false,
      "inputs": [
        {
          "indexed": true,
          "internalType": "address",
          "name": "forwarder",
          "type": "address"
        }
      ],
      "name": "ForwarderAdded",
      "type": "event"
    },
    {
      "anonymous": false,
      "inputs": [
        {
          "indexed": true,
          "internalType": "address",
          "name": "forwarder",
          "type": "address"
        }
      ],
      "name": "ForwarderRemoved",
      "type": "event"
    },
    {
      "anonymous": false,
      "inputs": [
        {
          "indexed": true,
          "internalType": "enum GMXPositionExecutor.GmxOperation",
          "name": "operation",
          "type": "uint8"
        },
        {
          "indexed": false,
          "internalType": "uint256",
          "name": "executionFee",
          "type": "uint256"
        }
      ],
      "name": "GmxOperationExecuted",
      "type": "event"
    },
    {
      "anonymous": false,
      "inputs": [
        {
          "indexed": true,
          "internalType": "address",
          "name": "orderVault",
          "type": "address"
        },
        {
          "indexed": false,
          "internalType": "uint256",
          "name": "executionFee",
          "type": "uint256"
        },
        {
          "indexed": false,
          "internalType": "bool",
          "name": "closeIsLong",
          "type": "bool"
        }
      ],
      "name": "OrderConfigUpdated",
      "type": "event"
    },
    {
      "anonymous": false,
      "inputs": [
        {
          "indexed": true,
          "internalType": "address",
          "name": "previousOwner",
          "type": "address"
        },
        {
          "indexed": true,
          "internalType": "address",
          "name": "newOwner",
          "type": "address"
        }
      ],
      "name": "OwnerUpdated",
      "type": "event"
    },
    {
      "inputs": [
        {
          "internalType": "address",
          "name": "forwarder",
          "type": "address"
        }
      ],
      "name": "addForwarder",
      "outputs": [],
      "stateMutability": "nonpayable",
      "type": "function"
    },
    {
      "inputs": [
        {
          "internalType": "address",
          "name": "",
          "type": "address"
        }
      ],
      "name": "allowedForwarders",
      "outputs": [
        {
          "internalType": "bool",
          "name": "",
          "type": "bool"
        }
      ],
      "stateMutability": "view",
      "type": "function"
    },
    {
      "inputs": [
        {
          "components": [
            {
              "internalType": "address",
              "name": "orderVault",
              "type": "address"
            },
            {
              "internalType": "uint256",
              "name": "executionFee",
              "type": "uint256"
            },
            {
              "internalType": "address",
              "name": "collateralToken",
              "type": "address"
            },
            {
              "internalType": "uint256",
              "name": "collateralAmount",
              "type": "uint256"
            },
            {
              "components": [
                {
                  "components": [
                    {
                      "internalType": "address",
                      "name": "receiver",
                      "type": "address"
                    },
                    {
                      "internalType": "address",
                      "name": "cancellationReceiver",
                      "type": "address"
                    },
                    {
                      "internalType": "address",
                      "name": "callbackContract",
                      "type": "address"
                    },
                    {
                      "internalType": "address",
                      "name": "uiFeeReceiver",
                      "type": "address"
                    },
                    {
                      "internalType": "address",
                      "name": "market",
                      "type": "address"
                    },
                    {
                      "internalType": "address",
                      "name": "initialCollateralToken",
                      "type": "address"
                    },
                    {
                      "internalType": "address[]",
                      "name": "swapPath",
                      "type": "address[]"
                    }
                  ],
                  "internalType": "struct IBaseOrderUtils.CreateOrderParamsAddresses",
                  "name": "addresses",
                  "type": "tuple"
                },
                {
                  "components": [
                    {
                      "internalType": "uint256",
                      "name": "sizeDeltaUsd",
                      "type": "uint256"
                    },
                    {
                      "internalType": "uint256",
                      "name": "initialCollateralDeltaAmount",
                      "type": "uint256"
                    },
                    {
                      "internalType": "uint256",
                      "name": "triggerPrice",
                      "type": "uint256"
                    },
                    {
                      "internalType": "uint256",
                      "name": "acceptablePrice",
                      "type": "uint256"
                    },
                    {
                      "internalType": "uint256",
                      "name": "executionFee",
                      "type": "uint256"
                    },
                    {
                      "internalType": "uint256",
                      "name": "callbackGasLimit",
                      "type": "uint256"
                    },
                    {
                      "internalType": "uint256",
                      "name": "minOutputAmount",
                      "type": "uint256"
                    },
                    {
                      "internalType": "uint256",
                      "name": "validFromTime",
                      "type": "uint256"
                    }
                  ],
                  "internalType": "struct IBaseOrderUtils.CreateOrderParamsNumbers",
                  "name": "numbers",
                  "type": "tuple"
                },
                {
                  "internalType": "enum IBaseOrderUtils.OrderType",
                  "name": "orderType",
                  "type": "uint8"
                },
                {
                  "internalType": "enum IBaseOrderUtils.DecreasePositionSwapType",
                  "name": "decreasePositionSwapType",
                  "type": "uint8"
                },
                {
                  "internalType": "bool",
                  "name": "isLong",
                  "type": "bool"
                },
                {
                  "internalType": "bool",
                  "name": "shouldUnwrapNativeToken",
                  "type": "bool"
                },
                {
                  "internalType": "bool",
                  "name": "autoCancel",
                  "type": "bool"
                },
                {
                  "internalType": "bytes32",
                  "name": "referralCode",
                  "type": "bytes32"
                },
                {
                  "internalType": "bytes32[]",
                  "name": "dataList",
                  "type": "bytes32[]"
                }
              ],
              "internalType": "struct IBaseOrderUtils.CreateOrderParams",
              "name": "orderParams",
              "type": "tuple"
            }
          ],
          "internalType": "struct IGMXExecutor.CreateOrderRequest",
          "name": "request",
          "type": "tuple"
        }
      ],
      "name": "createCloseOrder",
      "outputs": [
        {
          "internalType": "bytes32",
          "name": "orderKey",
          "type": "bytes32"
        }
      ],
      "stateMutability": "payable",
      "type": "function"
    },
    {
      "inputs": [
        {
          "components": [
            {
              "internalType": "address",
              "name": "orderVault",
              "type": "address"
            },
            {
              "internalType": "uint256",
              "name": "executionFee",
              "type": "uint256"
            },
            {
              "internalType": "address",
              "name": "collateralToken",
              "type": "address"
            },
            {
              "internalType": "uint256",
              "name": "collateralAmount",
              "type": "uint256"
            },
            {
              "components": [
                {
                  "components": [
                    {
                      "internalType": "address",
                      "name": "receiver",
                      "type": "address"
                    },
                    {
                      "internalType": "address",
                      "name": "cancellationReceiver",
                      "type": "address"
                    },
                    {
                      "internalType": "address",
                      "name": "callbackContract",
                      "type": "address"
                    },
                    {
                      "internalType": "address",
                      "name": "uiFeeReceiver",
                      "type": "address"
                    },
                    {
                      "internalType": "address",
                      "name": "market",
                      "type": "address"
                    },
                    {
                      "internalType": "address",
                      "name": "initialCollateralToken",
                      "type": "address"
                    },
                    {
                      "internalType": "address[]",
                      "name": "swapPath",
                      "type": "address[]"
                    }
                  ],
                  "internalType": "struct IBaseOrderUtils.CreateOrderParamsAddresses",
                  "name": "addresses",
                  "type": "tuple"
                },
                {
                  "components": [
                    {
                      "internalType": "uint256",
                      "name": "sizeDeltaUsd",
                      "type": "uint256"
                    },
                    {
                      "internalType": "uint256",
                      "name": "initialCollateralDeltaAmount",
                      "type": "uint256"
                    },
                    {
                      "internalType": "uint256",
                      "name": "triggerPrice",
                      "type": "uint256"
                    },
                    {
                      "internalType": "uint256",
                      "name": "acceptablePrice",
                      "type": "uint256"
                    },
                    {
                      "internalType": "uint256",
                      "name": "executionFee",
                      "type": "uint256"
                    },
                    {
                      "internalType": "uint256",
                      "name": "callbackGasLimit",
                      "type": "uint256"
                    },
                    {
                      "internalType": "uint256",
                      "name": "minOutputAmount",
                      "type": "uint256"
                    },
                    {
                      "internalType": "uint256",
                      "name": "validFromTime",
                      "type": "uint256"
                    }
                  ],
                  "internalType": "struct IBaseOrderUtils.CreateOrderParamsNumbers",
                  "name": "numbers",
                  "type": "tuple"
                },
                {
                  "internalType": "enum IBaseOrderUtils.OrderType",
                  "name": "orderType",
                  "type": "uint8"
                },
                {
                  "internalType": "enum IBaseOrderUtils.DecreasePositionSwapType",
                  "name": "decreasePositionSwapType",
                  "type": "uint8"
                },
                {
                  "internalType": "bool",
                  "name": "isLong",
                  "type": "bool"
                },
                {
                  "internalType": "bool",
                  "name": "shouldUnwrapNativeToken",
                  "type": "bool"
                },
                {
                  "internalType": "bool",
                  "name": "autoCancel",
                  "type": "bool"
                },
                {
                  "internalType": "bytes32",
                  "name": "referralCode",
                  "type": "bytes32"
                },
                {
                  "internalType": "bytes32[]",
                  "name": "dataList",
                  "type": "bytes32[]"
                }
              ],
              "internalType": "struct IBaseOrderUtils.CreateOrderParams",
              "name": "orderParams",
              "type": "tuple"
            }
          ],
          "internalType": "struct IGMXExecutor.CreateOrderRequest",
          "name": "request",
          "type": "tuple"
        }
      ],
      "name": "createLongOrder",
      "outputs": [
        {
          "internalType": "bytes32",
          "name": "orderKey",
          "type": "bytes32"
        }
      ],
      "stateMutability": "payable",
      "type": "function"
    },
    {
      "inputs": [
        {
          "components": [
            {
              "internalType": "address",
              "name": "orderVault",
              "type": "address"
            },
            {
              "internalType": "uint256",
              "name": "executionFee",
              "type": "uint256"
            },
            {
              "internalType": "address",
              "name": "collateralToken",
              "type": "address"
            },
            {
              "internalType": "uint256",
              "name": "collateralAmount",
              "type": "uint256"
            },
            {
              "components": [
                {
                  "components": [
                    {
                      "internalType": "address",
                      "name": "receiver",
                      "type": "address"
                    },
                    {
                      "internalType": "address",
                      "name": "cancellationReceiver",
                      "type": "address"
                    },
                    {
                      "internalType": "address",
                      "name": "callbackContract",
                      "type": "address"
                    },
                    {
                      "internalType": "address",
                      "name": "uiFeeReceiver",
                      "type": "address"
                    },
                    {
                      "internalType": "address",
                      "name": "market",
                      "type": "address"
                    },
                    {
                      "internalType": "address",
                      "name": "initialCollateralToken",
                      "type": "address"
                    },
                    {
                      "internalType": "address[]",
                      "name": "swapPath",
                      "type": "address[]"
                    }
                  ],
                  "internalType": "struct IBaseOrderUtils.CreateOrderParamsAddresses",
                  "name": "addresses",
                  "type": "tuple"
                },
                {
                  "components": [
                    {
                      "internalType": "uint256",
                      "name": "sizeDeltaUsd",
                      "type": "uint256"
                    },
                    {
                      "internalType": "uint256",
                      "name": "initialCollateralDeltaAmount",
                      "type": "uint256"
                    },
                    {
                      "internalType": "uint256",
                      "name": "triggerPrice",
                      "type": "uint256"
                    },
                    {
                      "internalType": "uint256",
                      "name": "acceptablePrice",
                      "type": "uint256"
                    },
                    {
                      "internalType": "uint256",
                      "name": "executionFee",
                      "type": "uint256"
                    },
                    {
                      "internalType": "uint256",
                      "name": "callbackGasLimit",
                      "type": "uint256"
                    },
                    {
                      "internalType": "uint256",
                      "name": "minOutputAmount",
                      "type": "uint256"
                    },
                    {
                      "internalType": "uint256",
                      "name": "validFromTime",
                      "type": "uint256"
                    }
                  ],
                  "internalType": "struct IBaseOrderUtils.CreateOrderParamsNumbers",
                  "name": "numbers",
                  "type": "tuple"
                },
                {
                  "internalType": "enum IBaseOrderUtils.OrderType",
                  "name": "orderType",
                  "type": "uint8"
                },
                {
                  "internalType": "enum IBaseOrderUtils.DecreasePositionSwapType",
                  "name": "decreasePositionSwapType",
                  "type": "uint8"
                },
                {
                  "internalType": "bool",
                  "name": "isLong",
                  "type": "bool"
                },
                {
                  "internalType": "bool",
                  "name": "shouldUnwrapNativeToken",
                  "type": "bool"
                },
                {
                  "internalType": "bool",
                  "name": "autoCancel",
                  "type": "bool"
                },
                {
                  "internalType": "bytes32",
                  "name": "referralCode",
                  "type": "bytes32"
                },
                {
                  "internalType": "bytes32[]",
                  "name": "dataList",
                  "type": "bytes32[]"
                }
              ],
              "internalType": "struct IBaseOrderUtils.CreateOrderParams",
              "name": "orderParams",
              "type": "tuple"
            }
          ],
          "internalType": "struct IGMXExecutor.CreateOrderRequest",
          "name": "request",
          "type": "tuple"
        }
      ],
      "name": "createShortOrder",
      "outputs": [
        {
          "internalType": "bytes32",
          "name": "orderKey",
          "type": "bytes32"
        }
      ],
      "stateMutability": "payable",
      "type": "function"
    },
    {
      "inputs": [
        {
          "internalType": "bytes",
          "name": "report",
          "type": "bytes"
        }
      ],
      "name": "executeFromSmartAccount",
      "outputs": [],
      "stateMutability": "nonpayable",
      "type": "function"
    },
    {
      "inputs": [],
      "name": "gmxRouter",
      "outputs": [
        {
          "internalType": "address",
          "name": "",
          "type": "address"
        }
      ],
      "stateMutability": "view",
      "type": "function"
    },
    {
      "inputs": [],
      "name": "gmxRouterSpender",
      "outputs": [
        {
          "internalType": "address",
          "name": "",
          "type": "address"
        }
      ],
      "stateMutability": "view",
      "type": "function"
    },
    {
      "inputs": [],
      "name": "orderConfig",
      "outputs": [
        {
          "internalType": "address",
          "name": "orderVault",
          "type": "address"
        },
        {
          "internalType": "address",
          "name": "cancellationReceiver",
          "type": "address"
        },
        {
          "internalType": "address",
          "name": "callbackContract",
          "type": "address"
        },
        {
          "internalType": "address",
          "name": "uiFeeReceiver",
          "type": "address"
        },
        {
          "internalType": "uint256",
          "name": "executionFee",
          "type": "uint256"
        },
        {
          "internalType": "uint256",
          "name": "callbackGasLimit",
          "type": "uint256"
        },
        {
          "internalType": "uint256",
          "name": "minOutputAmount",
          "type": "uint256"
        },
        {
          "internalType": "uint256",
          "name": "validFromTime",
          "type": "uint256"
        },
        {
          "internalType": "bool",
          "name": "shouldUnwrapNativeToken",
          "type": "bool"
        },
        {
          "internalType": "bool",
          "name": "autoCancel",
          "type": "bool"
        },
        {
          "internalType": "bytes32",
          "name": "referralCode",
          "type": "bytes32"
        },
        {
          "internalType": "bool",
          "name": "closeIsLong",
          "type": "bool"
        }
      ],
      "stateMutability": "view",
      "type": "function"
    },
    {
      "inputs": [],
      "name": "owner",
      "outputs": [
        {
          "internalType": "address",
          "name": "",
          "type": "address"
        }
      ],
      "stateMutability": "view",
      "type": "function"
    },
    {
      "inputs": [
        {
          "internalType": "address",
          "name": "forwarder",
          "type": "address"
        }
      ],
      "name": "removeForwarder",
      "outputs": [],
      "stateMutability": "nonpayable",
      "type": "function"
    },
    {
      "inputs": [
        {
          "components": [
            {
              "internalType": "address",
              "name": "orderVault",
              "type": "address"
            },
            {
              "internalType": "address",
              "name": "cancellationReceiver",
              "type": "address"
            },
            {
              "internalType": "address",
              "name": "callbackContract",
              "type": "address"
            },
            {
              "internalType": "address",
              "name": "uiFeeReceiver",
              "type": "address"
            },
            {
              "internalType": "uint256",
              "name": "executionFee",
              "type": "uint256"
            },
            {
              "internalType": "uint256",
              "name": "callbackGasLimit",
              "type": "uint256"
            },
            {
              "internalType": "uint256",
              "name": "minOutputAmount",
              "type": "uint256"
            },
            {
              "internalType": "uint256",
              "name": "validFromTime",
              "type": "uint256"
            },
            {
              "internalType": "bool",
              "name": "shouldUnwrapNativeToken",
              "type": "bool"
            },
            {
              "internalType": "bool",
              "name": "autoCancel",
              "type": "bool"
            },
            {
              "internalType": "bytes32",
              "name": "referralCode",
              "type": "bytes32"
            },
            {
              "internalType": "bool",
              "name": "closeIsLong",
              "type": "bool"
            }
          ],
          "internalType": "struct GMXPositionExecutor.OrderConfig",
          "name": "config",
          "type": "tuple"
        }
      ],
      "name": "setOrderConfig",
      "outputs": [],
      "stateMutability": "nonpayable",
      "type": "function"
    },
    {
      "inputs": [
        {
          "internalType": "address",
          "name": "newOwner",
          "type": "address"
        }
      ],
      "name": "setOwner",
      "outputs": [],
      "stateMutability": "nonpayable",
      "type": "function"
    },
    {
      "stateMutability": "payable",
      "type": "receive"
    }
  ],
  "bytecode": "0x60c060405234801561000f575f5ffd5b50604051611de8380380611de883398101604081905261002e9161014b565b6001600160a01b0383166100555760405163466d7fef60e01b815260040160405180910390fd5b6001600160a01b03821661007c5760405163032fa57160e41b815260040160405180910390fd5b6001600160a01b03808416608052821660a0525f80546001600160a01b0319163390811782556040519091907f8292fce18fa69edf4db7b94ea2e58241df0ae57f97e0a6c9b29067028bf92d76908290a36001600160a01b03811615610128576001600160a01b0381165f818152600160208190526040808320805460ff1916909217909155517f0ea0ce2c048ff45a4a95f2947879de3fb94abec2f152190400cab2d1272a68e79190a25b50505061018b565b80516001600160a01b0381168114610146575f5ffd5b919050565b5f5f5f6060848603121561015d575f5ffd5b61016684610130565b925061017460208501610130565b915061018260408501610130565b90509250925092565b60805160a051611c2e6101ba5f395f81816101700152610e4c01525f81816101f90152610d2a0152611c2e5ff3fe6080604052600436106100d1575f3560e01c8063634e31801161007c5780639f19151d116100575780639f19151d1461025a578063be4319b91461026d578063c6c35918146102e1578063ce97087814610300575f5ffd5b8063634e3180146101e857806385eeaf551461021b5780638da5cb5b1461023c575f5ffd5b80633fb8fe5c116100ac5780633fb8fe5c1461015f5780634d93172d146101aa5780635c41d2fe146101c9575f5ffd5b806313af4035146100dc5780631ee1dc9d146100fd57806334ecb5e214610140575f5ffd5b366100d857005b5f5ffd5b3480156100e7575f5ffd5b506100fb6100f6366004611158565b610313565b005b348015610108575f5ffd5b5061012b610117366004611158565b60016020525f908152604090205460ff1681565b60405190151581526020015b60405180910390f35b34801561014b575f5ffd5b506100fb61015a366004611173565b610401565b34801561016a575f5ffd5b506101927f000000000000000000000000000000000000000000000000000000000000000081565b6040516001600160a01b039091168152602001610137565b3480156101b5575f5ffd5b506100fb6101c4366004611158565b610668565b3480156101d4575f5ffd5b506100fb6101e3366004611158565b6106da565b3480156101f3575f5ffd5b506101927f000000000000000000000000000000000000000000000000000000000000000081565b61022e6102293660046111e1565b610752565b604051908152602001610137565b348015610247575f5ffd5b505f54610192906001600160a01b031681565b61022e6102683660046111e1565b610860565b348015610278575f5ffd5b50600254600354600454600554600654600754600854600954600a54600b54600c546102c99a6001600160a01b039081169a81169981169816969594939260ff80821693610100909204811692168c565b6040516101379c9b9a99989796959493929190611218565b3480156102ec575f5ffd5b506100fb6102fb3660046112b0565b6108f0565b61022e61030e3660046111e1565b6109ec565b5f546001600160a01b0316331461033d576040516330cd747160e01b815260040160405180910390fd5b6001600160a01b0381166103b2576040517f08c379a000000000000000000000000000000000000000000000000000000000815260206004820152600a60248201527f4f574e45525f5a45524f0000000000000000000000000000000000000000000060448201526064015b60405180910390fd5b5f80546001600160a01b038381166001600160a01b0319831681178455604051919092169283917f8292fce18fa69edf4db7b94ea2e58241df0ae57f97e0a6c9b29067028bf92d769190a35050565b335f9081526001602052604090205460ff1661044b576040517fddef582c0000000000000000000000000000000000000000000000000000000081523360048201526024016103a9565b5f80808080808061045e888a018a6112ca565b60408051610180810182526002546001600160a01b0390811680835260035482166020840152600454821693830193909352600554166060820152600654608082015260075460a082015260085460c082015260095460e0820152600a5460ff80821615156101008085019190915290910481161515610120830152600b54610140830152600c54161515610160820152979e50959c50939a5091985096509450925061051e57604051631e02c50960e11b815260040160405180910390fd5b80608001515f036105425760405163feced27f60e01b815260040160405180910390fd5b6001600160a01b03861661056957604051639db8d5b160e01b815260040160405180910390fd5b5f808660ff8b1682036105835760029250600191506105ee565b8a60ff1660010361059a57600292505f91506105ee565b8a60ff166002036105b7575050506101608101516004905f6105ee565b6040517f2f2938ce00000000000000000000000000000000000000000000000000000000815260ff8c1660048201526024016103a9565b5f610600858c8c858c8c8c8b8b610ab4565b90505f61060c82610cc7565b9050808d60ff167f12420f18f3125e6dd2c19efc9a177e3cd600de2538504d08a63c3f79a9ece03f8b8760405161064f9291909182521515602082015260400190565b60405180910390a3505050505050505050505050505050565b5f546001600160a01b03163314610692576040516330cd747160e01b815260040160405180910390fd5b6001600160a01b0381165f81815260016020526040808220805460ff19169055517fb96d15bf9258c7b8df062753a6a262864611fc7b060a5ee2e57e79b85f898d389190a250565b5f546001600160a01b03163314610704576040516330cd747160e01b815260040160405180910390fd5b6001600160a01b0381165f818152600160208190526040808320805460ff1916909217909155517f0ea0ce2c048ff45a4a95f2947879de3fb94abec2f152190400cab2d1272a68e79190a250565b5f806107646060840160408501611158565b6001600160a01b03160361078b57604051633a001e0560e11b815260040160405180910390fd5b5f6107996080840184611338565b6107a39080611357565b6107b49060a0810190608001611158565b6001600160a01b0316036107db57604051639db8d5b160e01b815260040160405180910390fd5b6107ed6107e783611680565b34610d00565b9050805f7f12420f18f3125e6dd2c19efc9a177e3cd600de2538504d08a63c3f79a9ece03f61081f6080860186611338565b602001356108306080870187611338565b61084390610180810190610160016117d5565b6040805192835290151560208301520160405180910390a3919050565b5f8061086f6080840184611338565b6108799080611357565b61088a9060a0810190608001611158565b6001600160a01b0316036108b157604051639db8d5b160e01b815260040160405180910390fd5b6108bd6107e783611680565b90508060027f12420f18f3125e6dd2c19efc9a177e3cd600de2538504d08a63c3f79a9ece03f61081f6080860186611338565b5f546001600160a01b0316331461091a576040516330cd747160e01b815260040160405180910390fd5b5f6109286020830183611158565b6001600160a01b03160361094f57604051631e02c50960e11b815260040160405180910390fd5b80608001355f036109735760405163feced27f60e01b815260040160405180910390fd5b806002610980828261180e565b5061099090506020820182611158565b6001600160a01b03167f8884fb8b9d5165717325d046bcd21bdb81d23223b9370aedf703c78c91c69ce460808301356109d1610180850161016086016117d5565b6040805192835290151560208301520160405180910390a250565b5f806109fe6060840160408501611158565b6001600160a01b031603610a2557604051633a001e0560e11b815260040160405180910390fd5b5f610a336080840184611338565b610a3d9080611357565b610a4e9060a0810190608001611158565b6001600160a01b031603610a7557604051639db8d5b160e01b815260040160405180910390fd5b610a816107e783611680565b90508060017f12420f18f3125e6dd2c19efc9a177e3cd600de2538504d08a63c3f79a9ece03f61081f6080860186611338565b610abc61102b565b895f0151815f01906001600160a01b031690816001600160a01b03168152505089608001518160200181815250508881604001906001600160a01b031690816001600160a01b031681525050868160600181815250506040518060e00160405280306001600160a01b031681526020018b602001516001600160a01b031681526020018b604001516001600160a01b031681526020018b606001516001600160a01b03168152602001896001600160a01b031681526020018a6001600160a01b031681526020015f67ffffffffffffffff811115610b9c57610b9c61136b565b604051908082528060200260200182016040528015610bc5578160200160208202803683370190505b5081525081608001515f01819052506040518061010001604052808781526020018881526020018681526020018581526020018b6080015181526020018b60a0015181526020018b60c0015181526020018b60e00151815250816080015160200181905250828160800151604001906008811115610c4557610c4561197a565b90816008811115610c5857610c5861197a565b905250608081810180515f6060909101819052815194151594909201939093526101008b810151845190151560a0909101526101208c0151845190151560c090910152610140909b0151835160e001526040805191825260208201905291519099015250959695505050505050565b60208101515f9047811115610cef5760405163feced27f60e01b815260040160405180910390fd5b610cf98382610d27565b9392505050565b5f815f03610d215760405163feced27f60e01b815260040160405180910390fd5b610cf983835b5f7f00000000000000000000000000000000000000000000000000000000000000008160048560800151604001516008811115610d6657610d6661197a565b14610d8557846080015160800151610d7f576001610d88565b5f610d88565b60025b85516040517f7d39aaf10000000000000000000000000000000000000000000000000000000081526001600160a01b03918216600482015260248101879052919250831690637d39aaf19086906044015f604051808303818588803b158015610def575f5ffd5b505af1158015610e01573d5f5f3e3d5ffd5b50505050505f85606001511115610f5357604085810151606087015191517f095ea7b30000000000000000000000000000000000000000000000000000000081526001600160a01b037f000000000000000000000000000000000000000000000000000000000000000081166004830152602482019390935291169063095ea7b3906044016020604051808303815f875af1158015610ea2573d5f5f3e3d5ffd5b505050506040513d601f19601f82011682018060405250810190610ec6919061198e565b506040858101518651606088015192517fe6d66ac80000000000000000000000000000000000000000000000000000000081526001600160a01b0392831660048201529082166024820152604481019290925283169063e6d66ac8906064015f604051808303815f87803b158015610f3c575f5ffd5b505af1158015610f4e573d5f5f3e3d5ffd5b505050505b60808501516040517ff59c48eb0000000000000000000000000000000000000000000000000000000081526001600160a01b0384169163f59c48eb91610f9c9190600401611ae6565b6020604051808303815f875af1158015610fb8573d5f5f3e3d5ffd5b505050506040513d601f19601f82011682018060405250810190610fdc9190611be1565b9250806002811115610ff057610ff061197a565b6040518581527f3f32b521b7496d2074765239e094aa3dd8d92a3bade84ef40d07dda0da018ce89060200160405180910390a2505092915050565b6040518060a001604052805f6001600160a01b031681526020015f81526020015f6001600160a01b031681526020015f815260200161106861106d565b905290565b6040805161020081019091525f61012082018181526101408301829052610160830182905261018083018290526101a083018290526101c083019190915260606101e0830152819081526020016110fa6040518061010001604052805f81526020015f81526020015f81526020015f81526020015f81526020015f81526020015f81526020015f81525090565b81526020015f81526020015f81526020015f151581526020015f151581526020015f151581526020015f8152602001606081525090565b6001600160a01b0381168114611145575f5ffd5b50565b803561115381611131565b919050565b5f60208284031215611168575f5ffd5b8135610cf981611131565b5f5f60208385031215611184575f5ffd5b823567ffffffffffffffff81111561119a575f5ffd5b8301601f810185136111aa575f5ffd5b803567ffffffffffffffff8111156111c0575f5ffd5b8560208284010111156111d1575f5ffd5b6020919091019590945092505050565b5f602082840312156111f1575f5ffd5b813567ffffffffffffffff811115611207575f5ffd5b820160a08185031215610cf9575f5ffd5b5f610180820190506001600160a01b038e1682526001600160a01b038d1660208301526001600160a01b038c1660408301526001600160a01b038b1660608301528960808301528860a08301528760c08301528660e083015285151561010083015261128961012083018615159052565b8361014083015261129f61016083018415159052565b9d9c50505050505050505050505050565b5f6101808284031280156112c2575f5ffd5b509092915050565b5f5f5f5f5f5f5f60e0888a0312156112e0575f5ffd5b873560ff811681146112f0575f5ffd5b9650602088013561130081611131565b9550604088013561131081611131565b969995985095966060810135965060808101359560a0820135955060c0909101359350915050565b5f82356101fe1983360301811261134d575f5ffd5b9190910192915050565b5f823560de1983360301811261134d575f5ffd5b634e487b7160e01b5f52604160045260245ffd5b60405160e0810167ffffffffffffffff811182821017156113a2576113a261136b565b60405290565b604051610100810167ffffffffffffffff811182821017156113a2576113a261136b565b60405160a0810167ffffffffffffffff811182821017156113a2576113a261136b565b604051610120810167ffffffffffffffff811182821017156113a2576113a261136b565b604051601f8201601f1916810167ffffffffffffffff8111828210171561143c5761143c61136b565b604052919050565b5f67ffffffffffffffff82111561145d5761145d61136b565b5060051b60200190565b5f82601f830112611476575f5ffd5b813561148961148482611444565b611413565b8082825260208201915060208360051b8601019250858311156114aa575f5ffd5b602085015b838110156114d05780356114c281611131565b8352602092830192016114af565b5095945050505050565b5f60e082840312156114ea575f5ffd5b6114f261137f565b90506114fd82611148565b815261150b60208301611148565b602082015261151c60408301611148565b604082015261152d60608301611148565b606082015261153e60808301611148565b608082015261154f60a08301611148565b60a082015260c082013567ffffffffffffffff81111561156d575f5ffd5b61157984828501611467565b60c08301525092915050565b5f6101008284031215611596575f5ffd5b61159e6113a8565b823581526020808401359082015260408084013590820152606080840135908201526080808401359082015260a0808401359082015260c0808401359082015260e0928301359281019290925250919050565b803560098110611153575f5ffd5b803560038110611153575f5ffd5b8015158114611145575f5ffd5b80356111538161160d565b5f82601f830112611634575f5ffd5b813561164261148482611444565b8082825260208201915060208360051b860101925085831115611663575f5ffd5b602085015b838110156114d0578035835260209283019201611668565b5f60a08236031215611690575f5ffd5b6116986113cc565b82356116a381611131565b81526020838101359082015260408301356116bd81611131565b604082015260608381013590820152608083013567ffffffffffffffff8111156116e5575f5ffd5b83016102003682900312156116f8575f5ffd5b6117006113ef565b813567ffffffffffffffff811115611716575f5ffd5b611722368285016114da565b8252506117323660208401611585565b602082015261174461012083016115f1565b604082015261175661014083016115ff565b6060820152611768610160830161161a565b608082015261177a610180830161161a565b60a082015261178c6101a0830161161a565b60c08201526101c082013560e08201526101e082013567ffffffffffffffff8111156117b6575f5ffd5b6117c236828501611625565b6101008301525060808301525092915050565b5f602082840312156117e5575f5ffd5b8135610cf98161160d565b5f81356117fc81611131565b92915050565b5f81356117fc8161160d565b61183761181a836117f0565b82546001600160a01b0319166001600160a01b0391909116178255565b611867611846602084016117f0565b600183016001600160a01b0382166001600160a01b03198254161781555050565b611897611876604084016117f0565b600283016001600160a01b0382166001600160a01b03198254161781555050565b6118c76118a6606084016117f0565b600383016001600160a01b0382166001600160a01b03198254161781555050565b6080820135600482015560a0820135600582015560c0820135600682015560e08201356007820155600881016119176119036101008501611802565b825490151560ff1660ff1991909116178255565b6119416119276101208501611802565b82805461ff00191691151560081b61ff0016919091179055565b50610140820135600982015561197661195d6101608401611802565b600a830160ff1981541660ff8315151681178255505050565b5050565b634e487b7160e01b5f52602160045260245ffd5b5f6020828403121561199e575f5ffd5b8151610cf98161160d565b5f8151808452602084019350602083015f5b828110156119e25781516001600160a01b03168652602095860195909101906001016119bb565b5093949350505050565b6001600160a01b0381511682526001600160a01b0360208201511660208301526001600160a01b0360408201511660408301525f6060820151611a3a60608501826001600160a01b03169052565b506080820151611a5560808501826001600160a01b03169052565b5060a0820151611a7060a08501826001600160a01b03169052565b5060c082015160e060c0850152611a8a60e08501826119a9565b949350505050565b60098110611aa257611aa261197a565b9052565b60038110611aa257611aa261197a565b5f8151808452602084019350602083015f5b828110156119e2578151865260209586019590910190600101611ac8565b602081525f82516102006020840152611b036102208401826119ec565b90506020840151611b606040850182805182526020810151602083015260408101516040830152606081015160608301526080810151608083015260a081015160a083015260c081015160c083015260e081015160e08301525050565b506040840151611b74610140850182611a92565b506060840151611b88610160850182611aa6565b506080840151151561018084015260a084015115156101a084015260c084015115156101c084015260e08401516101e0840152610100840151838203601f1901610200850152611bd88282611ab6565b95945050505050565b5f60208284031215611bf1575f5ffd5b505191905056fea2646970667358221220253185f0e8876b7b0d6ba15586fc0f26cb4ab6604ed4d22938f4256322f3431464736f6c634300081c0033",
  "linkReferences": {},
  "deployedLinkReferences": {},
  "immutableReferences": {
    "51": [
      {
        "length": 32,
        "start": 505
      },
      {
        "length": 32,
        "start": 3370
      }
    ],
    "53": [
      {
        "length": 32,
        "start": 368
      },
      {
        "length": 32,
        "start": 3660
      }
    ]
  },
  "inputSourceName": "project/contracts/GMXPositionExecutor.sol",
  "buildInfoId": "solc-0_8_28-ea89cd7762420192f148ae8189f6c8e2bf4c9c40"
}