{
  "_format": "hh3-artifact-1",
  "contractName": "Paymaster",
  "sourceName": "contracts/Paymaster.sol",
  "abi": [
    {
      "inputs": [
        {
          "internalType": "enum IPaymaster.PostOpMode",
          "name": "",
          "type": "uint8"
        },
        {
          "internalType": "bytes",
          "name": "",
          "type": "bytes"
        },
        {
          "internalType": "uint256",
          "name": "",
          "type": "uint256"
        },
        {
          "internalType": "uint256",
          "name": "",
          "type": "uint256"
        }
      ],
      "name": "postOp",
      "outputs": [],
      "stateMutability": "nonpayable",
      "type": "function"
    },
    {
      "inputs": [
        {
          "components": [
            {
              "internalType": "address",
              "name": "sender",
              "type": "address"
            },
            {
              "internalType": "uint256",
              "name": "nonce",
              "type": "uint256"
            },
            {
              "internalType": "bytes",
              "name": "initCode",
              "type": "bytes"
            },
            {
              "internalType": "bytes",
              "name": "callData",
              "type": "bytes"
            },
            {
              "internalType": "bytes32",
              "name": "accountGasLimits",
              "type": "bytes32"
            },
            {
              "internalType": "uint256",
              "name": "preVerificationGas",
              "type": "uint256"
            },
            {
              "internalType": "bytes32",
              "name": "gasFees",
              "type": "bytes32"
            },
            {
              "internalType": "bytes",
              "name": "paymasterAndData",
              "type": "bytes"
            },
            {
              "internalType": "bytes",
              "name": "signature",
              "type": "bytes"
            }
          ],
          "internalType": "struct PackedUserOperation",
          "name": "",
          "type": "tuple"
        },
        {
          "internalType": "bytes32",
          "name": "",
          "type": "bytes32"
        },
        {
          "internalType": "uint256",
          "name": "",
          "type": "uint256"
        }
      ],
      "name": "validatePaymasterUserOp",
      "outputs": [
        {
          "internalType": "bytes",
          "name": "context",
          "type": "bytes"
        },
        {
          "internalType": "uint256",
          "name": "validationData",
          "type": "uint256"
        }
      ],
      "stateMutability": "pure",
      "type": "function"
    },
    {
      "stateMutability": "payable",
      "type": "receive"
    }
  ],
  "bytecode": "0x6080604052348015600e575f5ffd5b506101f68061001c5f395ff3fe60806040526004361061002b575f3560e01c806352b7512c146100365780637c627b211461007e575f5ffd5b3661003257005b5f5ffd5b348015610041575f5ffd5b506100676100503660046100a1565b5050604080515f8082526020820190925292909150565b6040516100759291906100f0565b60405180910390f35b348015610089575f5ffd5b5061009f61009836600461012c565b5050505050565b005b5f5f5f606084860312156100b3575f5ffd5b833567ffffffffffffffff8111156100c9575f5ffd5b840161012081870312156100db575f5ffd5b95602085013595506040909401359392505050565b604081525f83518060408401528060208601606085015e5f606082850101526060601f19601f8301168401019150508260208301529392505050565b5f5f5f5f5f60808688031215610140575f5ffd5b85356003811061014e575f5ffd5b9450602086013567ffffffffffffffff811115610169575f5ffd5b8601601f81018813610179575f5ffd5b803567ffffffffffffffff81111561018f575f5ffd5b8860208284010111156101a0575f5ffd5b95986020919091019750949560408101359560609091013594509250505056fea264697066735822122064e8ae93fe3bd84f873a9ee9b3f999d68f38de20a9dafb78f012ff15a5280ace64736f6c634300081c0033",
  "linkReferences": {},
  "deployedLinkReferences": {},
  "immutableReferences": {},
  "inputSourceName": "project/contracts/Paymaster.sol",
  "buildInfoId": "solc-0_8_28-20a6c5a3e7fac1a325b742f9ada1cb7c9377b3b9"
}