{
  "_format": "hh3-artifact-1",
  "contractName": "Paymaster",
  "sourceName": "contracts/Paymaster.sol",
  "abi": [
    {
      "inputs": [
        {
          "internalType": "enum IPaymaster.PostOpMode",
          "name": "",
          "type": "uint8"
        },
        {
          "internalType": "bytes",
          "name": "",
          "type": "bytes"
        },
        {
          "internalType": "uint256",
          "name": "",
          "type": "uint256"
        },
        {
          "internalType": "uint256",
          "name": "",
          "type": "uint256"
        }
      ],
      "name": "postOp",
      "outputs": [],
      "stateMutability": "nonpayable",
      "type": "function"
    },
    {
      "inputs": [
        {
          "components": [
            {
              "internalType": "address",
              "name": "sender",
              "type": "address"
            },
            {
              "internalType": "uint256",
              "name": "nonce",
              "type": "uint256"
            },
            {
              "internalType": "bytes",
              "name": "initCode",
              "type": "bytes"
            },
            {
              "internalType": "bytes",
              "name": "callData",
              "type": "bytes"
            },
            {
              "internalType": "bytes32",
              "name": "accountGasLimits",
              "type": "bytes32"
            },
            {
              "internalType": "uint256",
              "name": "preVerificationGas",
              "type": "uint256"
            },
            {
              "internalType": "bytes32",
              "name": "gasFees",
              "type": "bytes32"
            },
            {
              "internalType": "bytes",
              "name": "paymasterAndData",
              "type": "bytes"
            },
            {
              "internalType": "bytes",
              "name": "signature",
              "type": "bytes"
            }
          ],
          "internalType": "struct PackedUserOperation",
          "name": "",
          "type": "tuple"
        },
        {
          "internalType": "bytes32",
          "name": "",
          "type": "bytes32"
        },
        {
          "internalType": "uint256",
          "name": "",
          "type": "uint256"
        }
      ],
      "name": "validatePaymasterUserOp",
      "outputs": [
        {
          "internalType": "bytes",
          "name": "context",
          "type": "bytes"
        },
        {
          "internalType": "uint256",
          "name": "validationData",
          "type": "uint256"
        }
      ],
      "stateMutability": "pure",
      "type": "function"
    },
    {
      "stateMutability": "payable",
      "type": "receive"
    }
  ],
  "bytecode": "0x6080806040523460155761016e908161001a8239f35b5f80fdfe6080604052600436101561001a575b3615610018575f80fd5b005b5f3560e01c806352b7512c1461009257637c627b210361000e573461008e57608036600319011261008e576003600435101561008e5760243567ffffffffffffffff811161008e573660238201121561008e57806004013567ffffffffffffffff811161008e573691016024011161008e57005b5f80fd5b3461008e57606036600319011261008e5760043567ffffffffffffffff811161008e5761012090600319903603011261008e576040516020810167ffffffffffffffff811182821017610124576040525f8082526020820191606091368437604051928391604083525180918160408501528484015e5f82820184018190526020830152601f01601f19168101030190f35b634e487b7160e01b5f52604160045260245ffdfea2646970667358221220d266736174d77423918b8ab8e98ea78c48ac816435531dc53d22c7824fdb47c364736f6c634300081c0033",
  "linkReferences": {},
  "deployedLinkReferences": {},
  "immutableReferences": {},
  "inputSourceName": "project/contracts/Paymaster.sol",
  "buildInfoId": "solc-0_8_28-1ed4c4d10b0a2a549b14c65942eef6784018a61d"
}